:020000040800F2
:10000000A06B0020490100085D2F0008DB190008E3
:10001000CB2E00085D0F0008D15200080000000040
:10002000000000000000000000000000514800082F
:100030009113000800000000CB420008D5490008D9
:100040006301000863010008630100086301000800
:1000500063010008630100086301000863010008F0
:1000600063010008630100086301000863010008E0
:1000700063010008630100086301000863010008D0
:1000800063010008630100086301000863010008C0
:1000900063010008630100086301000863010008B0
:1000A00063010008630100086301000863010008A0
:1000B0006301000863010008514C00086301000857
:1000C0006301000863010008630100086301000880
:1000D00063010008D54D0008630100085D4E00086B
:1000E0006301000863010008630100086301000860
:1000F0006301000863010008630100086301000850
:10010000630100086301000863010008630100083F
:10011000630100086301000863010008630100082F
:10012000630100086301000863010008630100081F
:10013000DFF810D000F0BAFE00480047D164000894
:10014000AFF30080A06B00200648804706480047B8
:10015000FEE7FEE7FEE7FEE7FEE7FEE7FEE7FEE777
:10016000FEE7FEE7094A000831010008A0F141015D
:10017000192900D82030704740EA01039B0703D0BB
:1001800009E008C9121F08C0042AFAD203E011F8D6
:10019000013B00F8013B521EF9D27047D2B201E098
:1001A00000F8012B491EFBD270470022F6E710B57C
:1001B00013460A4604461946FFF7F0FF204610BDD5
:1001C000421E12F8013F002BFBD111F8013B02F84F
:1001D000013B002BF9D1704730B505462A460B4646
:1001E00012F8010B13F8014B08B1A042F8D01CB172
:1001F000002802D06D1CF1E7284630BDCAB2401E6F
:1002000010F8011F8A4202D00029F9D1002070475E
:10021000421C10F8011B0029FBD1801A704710B551
:10022000002200E0521C835C8C5CA34201D1002BB5
:10023000F8D1D8B2E1B2401A10BD10B5044600E0C2
:10024000401C0378002BFBD100E0401C521E04D35D
:1002500011F8013B0370002BF7D1002101702046FB
:1002600010BD30B505460020034600E05B1C9342FC
:1002700005D2EC5CC85C201A01D1002CF6D130BD4F
:100280002DE9FF4F087883B09946FF2805D0491C17
:100290002D2804D00024002008E000200BE00124D9
:1002A000F9E700EB800003EB4000491C0B78FF2BC3
:1002B000F7D104B1404200230293147819461D4639
:1002C0002D2C01D02B2C04D1521C2D2C13D000240A
:1002D0000294AA461478FF2C0FD00A25A3FB0578B8
:1002E00001FB05814FF0000C03FB0C11521CE319BC
:1002F0004AEB0101EEE70124EAE7814453EA0100F9
:1003000002D019F5C87F06DA03980021C0E9001170
:1003100007B0BDE8F08F0025AE4E2F46DFF8B8825B
:10032000184600F09EFDCDE90001B9F1000002DAA7
:10033000C9F1000400E004460023A74A1AEB030BAE
:1003400042EB045A12E0E00707D02A46334638460B
:10035000414600F05CFA074688462A463346104676
:10036000194600F054FA05460E466410002CEAD1F6
:10037000DDE90001B9F1000F5A46534606DA00F0F4
:1003800001FD3A46434600F0FDFC05E000F03FFA6F
:100390003A46434600F03BFA029A0AB181F0004126
:1003A000039AC2E90001B3E72DE9FF4F1F468DB064
:1003B000D7E901464FF0FF382E2045464FF000099F
:1003C0000B90B9696D1C0E988847396A8246884738
:1003D0000028F6D1BAF1FF3F0AD024F4D064002EF1
:1003E00011DDBAF12B0F08D0BAF12D0F0BD102E0BD
:1003F000404611B08DE744F48064B9696D1C0E98D5
:1004000088478246761E6946600501D52D2000E0AA
:100410002B208DF8000001F1010B0DF1200809E0FF
:10042000B9696D1C0E98884782460F9844F4007491
:10043000761E0560002E02DDBAF1300FF0D00B9968
:100440008A453ED144F0800406E00F99681CA9F16A
:10045000010944F400740860B9696D1C761E0E9899
:10046000884782463028F0D02BE00B998A4505D189
:10047000200603D444F08004761E18E0504605F0B0
:10048000A1F908B30DF11301761E44F400748B45F5
:1004900008D2AAF130000BF8010B200607D5A9F10C
:1004A000010003E0200602D409F101008146A00505
:1004B00002D50F99681C0860B9696D1C0E988847B1
:1004C0008246002ED1DC53E0002E51DDBAF1650FDB
:1004D00002D0BAF1450F4BD1A00549D5B9696D1CC1
:1004E00024F44074761E0E9888478246002E0CDD58
:1004F0002B2804D0BAF12D0F07D144F48074B969C8
:100500006D1C0E9888478246761EE00501D52D2188
:1005100000E02B2108F8011BCDF82C8021E00DF123
:100520002901761E44F4007488450CD2AAF13000EB
:1005300010F0FF0088F8000002D10B99884509D916
:1005400008F1010806E0E00501D5244801E042F287
:100550000F708146B9696D1C0E98884782460F98C6
:100560000560002E04DD504605F02CF90028D6D198
:10057000F9690E988847FF208BF8000088F8000082
:100580000020069007904B466A4608A906A8FFF788
:1005900077FEA00502D46FF001002AE714F0240FC3
:1005A0000AD0E00714D1DDE906123868031D3B606C
:1005B0000068C0E900120BE0DDE9060100F038FA3E
:1005C0000146E00704D13868021D3A600068016006
:1005D00028460EE7000014400000F03FF1D8FFFF6E
:1005E00080EA010210B502F00043400022D04A0028
:1005F0001FD0010E01EB1261C0F35600C2F3560288
:1006000040F4000042F40002A0FB022000047F3905
:10061000140400D0401C50EA124001D44000491E8E
:10062000C2B20C0604EBD010401C4008802A02D055
:1006300003E0002010BD20F00100002900DA0020B6
:10064000184310BD30B480EA010202F0004530F0DA
:10065000004221F0004013D090B1C30DD40DC2F37D
:100660001601C0F31600E41A41F4000140F4000240
:100670007D34914201D3641C00E04900002C02DA71
:1006800030BC002070474FF400000023914201D39A
:10069000891A034340084FEA4101F7D151B1914211
:1006A00002D14FF0004105E002D24FF0010101E01C
:1006B0006FF0010103EBC450284430BC00F0CEBA07
:1006C0002DE9FE4F804681EA0300C00F0C460090E2
:1006D00021F0004123F00045B8EB0200A94105D20A
:1006E0004046214690461C460B46024623F00040F9
:1006F000104347D0270DC7F30A00C3F30A510290F5
:10070000401A019040286BDAC3F3130040F4801BB9
:100710000098924620B10023D2EB030A63EB0B0B47
:1007200001985946C0F14002504600F0F8F90646DB
:100730000D4650465946019A00F010FA10EB080099
:100740006141002487EA115284EAE7731A4340D0DA
:10075000009A62B3019A012A4FEA075215DC001B86
:1007600061EB02014FF0004202EA0752CDE900427C
:10077000001C41F5801132462B4600F0B5FA03B05B
:10078000BDE8F08F40462146F9E7001B61EB02010E
:10079000001C41F5801300185B412018A2F50017DA
:1007A00047EB030140EAD570B6196D4111E06D08C1
:1007B0004FEA360645EAC0754FEA0752001B61EB67
:1007C0000201001C41F5801149084FEA3000001970
:1007D000514132462B4603B0BDE8F04F00F075BAE8
:1007E0000098012240000023D0EB020263EBE0738B
:1007F000009821464FEAE074B8EB000061EB040179
:10080000E9E783F000435BE781F0004158E72DE919
:10081000FE4F81EA030404F0004421F000410094FB
:100820004FF0000B23F0004350EA01045ED052EA7F
:1008300003045BD0C3F30A54C1F30A552C44A4F259
:10084000F3340194A0FB0254C1F3130141F480116D
:10085000C3F3130343F4801301FB024400FB034E74
:10086000840A970A44EA815447EA8357A4FB07683D
:1008700002958D0A05FB07854FEA932C04FB0C5467
:100880002705029D4FEA065847EA1637B5EB0805DB
:100890006EEB070C870E920E47EA811742EA83122D
:1008A000A7FB0201B6EB0B0164EB00042B0D43EA3E
:1008B0000C335E1844EB1C50DA465146E7FB02014C
:1008C000C5F313044FEA0B3343EA14534FEA0432DF
:1008D000019C43EA0603A4F10C040294009CCDE9B8
:1008E00000B400F001FA03B0BDE8F08F002001462B
:1008F000F9E796230022114600F0B9B90EB5C10FF1
:1009000080EAE0700844CA07002140F233438DE8D2
:100910000E000A460B4600F0E7F903B000BD0EB525
:1009200040F2334102910021CDE900110A460B4605
:1009300000F0DAF903B000BD00F0004220F0004002
:10094000C10DC0F3160040F400007F2901DA002039
:100950007047962903DCC1F19601C84001E0963941
:100960008840002AF4D04042704770B5C1F30A5263
:1009700001F000450024C1F3130140F2FF3341F4BC
:1009800080119A4201DA002070BD40F233439A424E
:10099000A2F2334203DC524200F0D0F800E0904073
:1009A0002C43F1D0404270BD00F0004230F00040D6
:1009B0000AD0C10D01F56071C0F3160042EA015181
:1009C000C2084007114370470020014670470000ED
:1009D00030B5041E71F1000404DB4FF000444042C6
:1009E00064EB0101141E73F1000405DB1C464FF09B
:1009F0000043524263EB04038B4208BF824230BD86
:100A000030B5041E71F1000404DB4FF00044404295
:100A100064EB0101141E73F1000405DB1C464FF06A
:100A20000043524263EB0403994208BF904230BD39
:100A300001F0004330B421F0004150EA010206D039
:100A40000A0DA2F56072C1F31301002A02DC30BC6A
:100A500000207047440F44EAC104C100E01830BCD4
:100A600000EBC25000F0FAB8002801DBC0F10040F2
:100A7000002901DBC1F1004181427047002801DB00
:100A8000C0F10040002901DBC1F1004188427047FC
:100A900030B50B46014600202022012409E021FA4E
:100AA00002F59D4205D303FA02F5491B04FA02F54B
:100AB0002844151EA2F10102F1DC30BD2DE9F05FE2
:100AC0000546002092469B468846064681464024BD
:100AD0001BE0284641464746224600F02FF8534681
:100AE0005A46C01A914110D311461846224600F0CA
:100AF00016F82D1A67EB01084F4622460120002107
:100B000000F00DF817EB00094E41201EA4F101047E
:100B1000DFDC484631462A464346BDE8F09F202A9E
:100B200004DB203A00FA02F1002070479140C2F144
:100B3000200320FA03F3194390407047202A04DB76
:100B4000203A21FA02F00021704721FA02F3D04046
:100B5000C2F120029140084319467047202A06DB63
:100B6000CB17203A41FA02F043EAE07306E041FA7B
:100B700002F3D040C2F12002914008431946704769
:100B8000426842B1016811F8013B23B1521EC0E92D
:100B90000012184670470121C160881E70474268E4
:100BA0005AB1C368016843B983688B4205D0491EB6
:100BB000521CC0E90012002070474FF0FF30704710
:100BC0000FB4002300B589B00CA900910B996FF008
:100BD0000042CB601E4B06931E4B07930423CDE9C6
:100BE00001321D4A089202466B460020FFF7DCFBEB
:100BF00009B05DF814FB70B586B006464FF0FF30C3
:100C00000091CDE90101002015460C4604903246C2
:100C1000694604A8FFF7D4FF02460498211825B1BD
:100C200008B1084600E020462860049800280DD04E
:100C3000002A02DD0098884208D0081B0094CDE904
:100C400001043246694604A8FFF7BAFF06B070BD3A
:100C5000810B00089F0B0008D10E00080029A8BFD7
:100C60007047401C490008BF20F00100704710B4D5
:100C7000B0FA80FC00FA0CF050EA010404BF10BC8A
:100C8000704749B1CCF1200421FA04F411FA0CF1B7
:100C900018BF012121430843A3EB0C01CB1D4FEAF0
:100CA00000614FEA102042BF002010BC704700EBEB
:100CB000C35010440029A4BF10BC7047401C490019
:100CC00008BF20F0010010BC704710B5141E73F16E
:100CD000000408DA401C41F1000192185B411A43FC
:100CE00001D120F0010010BD2DE9F04D92469B4648
:100CF00011B1B1FA81F202E0B0FA80F220329046EE
:100D0000FFF70DFF04460F4640EA0A0041EA0B01D7
:100D100053465A46084313D0114653EA010019D0EE
:100D2000C8F140025046FFF709FF05460E465046FF
:100D300059464246FFF7F3FE084305D0012004E080
:100D400020463946BDE8F08D0020054346EAE076AE
:100D50002C4337430A986305E40AA0EB08000022FD
:100D6000FD0A44EA47540A3002D500200146E9E76B
:100D7000010510196941DDE9084500196941BDE81F
:100D8000F04DA2E72DE9F04D81EA030404F0004B99
:100D900021F0004514464FF0000A23F0004150EACC
:100DA000050220D054EA01021DD0C5F30A570246BD
:100DB000C5F31303C1F31300C1F30A5640F48015C1
:100DC00043F48013A7EB0608101BD64608F2FD3843
:100DD00073EB050002D308F1010801E092185B41B2
:100DE000B8F1000F03DA00200146BDE8F08D0020C5
:100DF0004FF48011064684460EE0171B73EB05077F
:100E000005D3121B63EB050306434CEA010C4908AA
:100E10004FEA300092185B4150EA0107EDD152EAE7
:100E2000030012D082EA040083EA0501084305D0DA
:100E3000101BAB4106D20122002306E000224FF036
:100E4000004302E06FF0010253101AEB06004CEB76
:100E5000085110EB0A0041EB0B01BDE8F04DFFF724
:100E600034BF0EB540F2334202920022CDE9002297
:100E70001346FFF739FF03B000BDC1F30A52C1F3B7
:100E8000130140F2FF3341F480119A4202DA00204C
:100E90000146704740F233439A42A2F2334202DCE9
:100EA0005242FFF74BBEFFF73ABE0000064C074D1B
:100EB00006E0E06840F0010394E80700984710342A
:100EC000AC42F6D3FFF738F9B87B0008D87B0008AE
:100ED000C0B24FF4F05100F001B800007F2801D9F2
:100EE000002208E0064A02EB5002C007127800D147
:100EF000120902F00F0201209040084070470000E4
:100F0000BE7A000870B58C1810F8015B15F0070365
:100F100001D110F8013B2A1106D110F8012B03E092
:100F200010F8016B01F8016B5B1EF9D12B0705D49A
:100F30000023521E0DD401F8013BFAE710F8013BE3
:100F4000CB1A921C03E013F8015B01F8015B521EFF
:100F5000F9D5A142D8D3002070BD704700BFFEE78D
:100F60002DE9F0410746884615460421052000F08A
:100F700083F80021012004F0C1FA80210A2003F047
:100F800068FC002405E0395D092004F0B7FA601C14
:100F9000C4B24445F7DB0321012004F0AFFAFF247B
:100FA00000BF052003F00AFB0646601EC4B21CB158
:100FB00006F004000028F4D0222003F0FFFA287085
:100FC000212003F0FBFA6870BDE8F08110B5012024
:100FD00001F008F804463CB11F48007820B91F48CA
:100FE000047001201C49087064B11B480078012876
:100FF00008DB194800781E2804DC17480078401CDC
:1010000015490870ACB914480078002811DD124861
:1010100000781E280DDA11480078012803D110A0AD
:1010200004F084FA00E000BF00BF00200A49087005
:1010300011E084B9084800781E280CDB07480078C6
:10104000012803D109A004F071FA00E000BF00BF3D
:1010500000200149087010BD9F090020A009002050
:101060004B6579315F53686F72740A004B65793153
:101070005F4C6F6E670A000070B505460C46284647
:1010800003F09CFA064626EA0401284604F036FAE4
:1010900070BD000008B50121042003F08BF9102079
:1010A000ADF800008DF8030003208DF802006946BA
:1010B000034800F0B2FB1021014800F08CFC08BD91
:1010C0000008014008B51020ADF8000048208DF858
:1010D00003006946014800F0A0FB08BD000801407C
:1010E00008B51020ADF800008DF8030003208DF83E
:1010F00002006946014800F090FB08BD000801406D
:1011000008B50121082003F055F94020ADF8000092
:1011100010208DF8030003208DF802006946024874
:1011200000F07BFB08BD0000000C01402DE9FC5FD6
:10113000064600F057F8002404E0305D00F0FAF8AD
:10114000601CC4B2082CF8DB442000F0F3F800F077
:1011500049F8002404E0305D00F0ECF8601CC4B2F3
:10116000082CF8DBBE2000F0E5F800F0ADF883466F
:1011700000F0AAF881464FEA092005B245EA0B05BE
:10118000002D0EDAE843401CFFF7B8FB07460022AB
:101190000C4BFFF73CFBCDE90001FFF749FC824611
:1011A0000CE02846FFF7AAFB07460022054BFFF795
:1011B0002EFBCDE90001FFF73BFC82465046BDE81F
:1011C000FC9F00000000B03F10B5FFF799FF4021E1
:1011D000034800F000FC00F097F800F02DF810BD77
:1011E000000C014010B500F08FF800F025F85520F4
:1011F00000F0A0F810BD000008B54020ADF80000D8
:1012000048208DF803006946014800F006FB08BD40
:10121000000C014008B54020ADF8000010208DF80A
:10122000030003208DF802006946024800F0F5FA39
:1012300008BD0000000C014010B50024FFF7DCFFE2
:1012400004E0601CC4B2012004F0A4FF40210F4858
:1012500000F0B6FB08B1642CF3DB642C01DB012049
:1012600010BD002404E0601CC4B2012004F092FF11
:101270004021064800F0A4FB08B9F02CF3DBF02C69
:1012800001DB0120ECE70020EAE70000000C014050
:1012900010B5FFF7BFFF40210A4800F09AFB0A2073
:1012A00004F078FFFFF7A8FF4021064800F088FB14
:1012B000012801D1012400E000242D2004F06AFF60
:1012C000204610BD000C014070B50026002408E047
:1012D000FFF7DEFF054605FA04F03043C6B2601C96
:1012E000C4B2082CF4DB304670BD70B5054633201F
:1012F00000F020F8002404E0FFF7E6FF2855601C0A
:10130000C4B2082CF8DB70BD10B5FFF783FF402195
:10131000074800F05EFB40F2EE2004F03BFF402166
:10132000034800F058FB0F2004F034FF10BD00000C
:10133000000C014070B50446FFF76CFF002522E069
:1013400004F00106641076B14021104800F041FB22
:10135000082004F01FFF40210C4800F03CFB3A201D
:1013600004F018FF0DE04021084800F032FB462051
:1013700004F010FF4021054800F02DFB022004F08E
:1013800009FF681CC5B2082DDADB70BD000C0140F6
:101390007047000010B54FF480710348FEF705FF59
:1013A00000200249088010BD7252002090090020E0
:1013B00070B50546002400BF00F054F980B90DA1B6
:1013C0000E48FEF709FF044654B13A212046FEF7C5
:1013D00015FF044614B1641C204670BD0020FCE7D4
:1013E000052004F0B1FE281EA5F101018DB2E3D164
:1013F00000BFF2E74950442C000000007252002068
:1014000000B5A1B0FA2004F09FFEFFF7C3FF32A0A1
:1014100004F08CF803E04FF4967004F095FEC822B7
:101420002FA130A000F0D4F80028F4D12FA004F0B0
:101430007DF803E04FF4967004F086FEC82228A1E0
:101440002DA000F0C5F80028F4D12FA004F06EF80C
:1014500003E04FF4967004F077FEC82220A12DA07F
:1014600000F0B6F80028F4D12EA004F05FF8802137
:1014700001A8FEF79AFE2DA32FA230A101A804F027
:1014800065F803E04FF4967004F05EFEC82231A1C7
:1014900001A800F09DF80028F4D130A004F046F82F
:1014A000802101A8FEF781FE40F25B732EA23AA1D3
:1014B00001A804F04BF803E04FF4FA7004F044FE86
:1014C000C8223CA101A800F083F80028F4D13BA079
:1014D00004F02CF821B000BD41540D0A00000000BA
:1014E0004F4B000041540D0A0D00000043574D4F73
:1014F00044450D0A0000000041542B43574D4F4412
:10150000453D310D0A00000041542B4357444843E8
:10151000500D0A0041542B4357444843503D312C51
:10152000310D0A0043574A41500D0A00313233341D
:1015300035363738000000004E45540041542B43E7
:10154000574A41503D222573222C222573220D0A31
:1015500000000000474F54204950000043495053B9
:10156000544152540D0A0000696F742D30367A30A0
:10157000306178646867666B32346E2E6D71747496
:101580002E696F746875622E616C6979756E63730C
:101590002E636F6D0000000041542B43495053549B
:1015A0004152543D22544350222C222573222C2593
:1015B000640D0A00434F4E4E454354004553503886
:1015C00032363620496E6974204F4B0D0A000000F8
:1015D0002DE9F04105460E4614462846FEF718FE52
:1015E00087B23946284603F01BFF0FE000F03AF8B7
:1015F00048B931460948FEF7EFFD20B1FFF7CAFEB2
:101600000020BDE8F0810A2004F09EFD201EA4F118
:1016100001018CB2EAD10120F3E7000072520020F0
:1016200030B589B005460C46FFF7B4FE224608A146
:1016300001A803F08BFFC82209A101A8FFF7C8FF8A
:1016400018B92146284603F0EBFE09B030BD000072
:1016500041542B43495053454E443D25640D0A00E7
:101660003E0000000A48008808B901207047084879
:10167000008808490988884203D10020044908806D
:10168000F4E703480088034908800120EEE70000E2
:101690009009002092090020044900E0521C11F832
:1016A000013B002BFAD1500870470000A40800202D
:1016B00010B50446062C22D2DFE804F003080D1210
:1016C000171C0121084602F065FE18E001210220E6
:1016D00002F060FE13E00121042002F05BFE0EE048
:1016E0000121082002F056FE09E00121102002F03D
:1016F00051FE04E00121202002F04CFE00BF00BF9B
:1017000010BD70B504460D4616462046FFF7D0FFC3
:1017100032462946204600F05AF8204600F001F8EB
:1017200070BD3EB50446204603F04AFB0546062C34
:1017300033D2DFE804F0030B131B232A4FF47A7033
:10174000ADF804004820ADF8000026E040F2E73094
:10175000ADF804004720ADF800001EE04FF47A70A9
:10176000ADF804004820ADF8000016E040F2E63085
:10177000ADF804004620ADF800000EE05920ADF8A9
:1017800004004F20ADF8000007E040F2E730ADF86C
:1017900004004720ADF8000000BF00BF0020ADF8F6
:1017A0000600ADF802008DF808006946284603F0EF
:1017B000B5FA0121284603F085FA01221146284690
:1017C00003F0A3FA0021284603F082FA3EBDF8B5E3
:1017D00006460C4615464FF4A06001F0F9FB26B111
:1017E000012E06D0022E0CD107E01C208DF800003F
:1017F00007E01D208DF8000003E01E208DF800009A
:1018000000BF00BF8DF801408DF8025001208DF817
:101810000300684601F0A4FBF8BD2DE9F041024643
:1018200000250026002000230024002791F803C093
:101830000CF00F0591F803C00CF0100CBCF1000F78
:1018400003D091F802C04CEA050591F800C0BCF144
:10185000000F31D0146800202BE04FF0010C0CFA7F
:1018600000F3B1F800C00CEA03069E4220D18300C9
:101870004FF00F0C0CFA03F7BC4305FA03FC4CEADB
:10188000040491F803C0BCF1280F06D14FF0010CFD
:101890000CFA00FCC2F814C00AE091F803C0BCF1D5
:1018A000480F05D14FF0010C0CFA00FCC2F810C033
:1018B000401C0828D1D31460B1F800C0BCF1FF0F60
:1018C00034DD546800202EE000F1080C4FF00108D0
:1018D00008FA0CF3B1F800C00CEA03069E4221D1CD
:1018E00083004FF00F0C0CFA03F7BC4305FA03FC1E
:1018F0004CEA040491F803C0BCF1280F05D100F1B3
:10190000080C08FA0CF8C2F8148091F803C0BCF176
:10191000480F07D100F1080C4FF0010808FA0CF845
:10192000C2F81080401C0828CED35460BDE8F08176
:10193000F0B50A46002300240021002500F00046EF
:10194000B6F1004F02D11D4EF16901E01B4E7168E6
:10195000C0F3034583B200F44016B6F5401F08D12A
:1019600021F07061154E766826F07066134F7E6028
:1019700012E000F48016B6F5801F06D1032606FAA1
:1019800005F4A14341F0706106E0460D360103FA0B
:1019900006F6B14341F0706122B1460D360103FAFB
:1019A00006F6314300F00046B6F1004F02D1034E77
:1019B000F16101E0014E7160F0BD000000000140E6
:1019C0000246002093680B400BB1012000E000208C
:1019D0007047416170470161704700BFFEE700003A
:1019E00000B591B04FF4A06001F0F2FAFFF754FE99
:1019F0006149086004F086FB012200210220FFF704
:101A000080FE4FF4E13003F065FC4FF4E13003F069
:101A1000B1FC03F029F800F00BFBFFF7D5FB5748AA
:101A2000FFF763FCFFF736FB02F03EFD0020544950
:101A300008605449C1F8900102F048FC02F080FBB4
:101A4000412000F019FB01F091FB002001F049FB5F
:101A5000002001F054FB02E0052004F075FB4A4928
:101A60004A4802F09BFE0128F6D149A104A803F0E0
:101A70006DFD04AA0221002001F006FC04F086FEA0
:101A80004748484908600020474908604FF4FA7009
:101A9000464908600020464908604EE000BF3848CB
:101AA000783800680128FAD04249072004F02DFE5A
:101AB000404800788007800B3E49497840EA012081
:101AC0003C49897808433C49394A126841F8220068
:101AD0003848C0788007800B3649097940EA0120F0
:101AE0003449497908433549314A126841F822009E
:101AF00031482F49096850F821002A49096888426D
:101B000006D22D482A49096850F821002549086065
:101B100029482749096850F8210023490968884263
:101B200006D925482249096850F821001E49086055
:101B30001F480068401C1E4908601D4800681B497A
:101B400009688842AADB1C481949096850F8210035
:101B50001B4908601B481C491C4A1D4BCDE900214C
:101B60000290154A11480168144804F07DFE01F006
:101B7000B3FA11B000BD00002C0900203809002084
:101B80009481214200802142945B0020940900202E
:101B90002D2D2D204D41583330313032202D2D0048
:101BA000FFFF0300140000201800002000000020A8
:101BB000200000202D00002094190020C4110020D6
:101BC0001C000020100000200C0000200800002055
:101BD0000400002008B50121082002F0EBFB4FF4BF
:101BE0008070ADF8000004208DF8030069460248BB
:101BF000FFF713FE08BD0000000C014008B50121ED
:101C0000082002F0D7FB4FF48070ADF800000320ED
:101C10008DF8020010208DF8030069460148FFF797
:101C2000FCFD08BD000C0140FEB500209A4908608B
:101C30009A489B49086000209A49086064209649A8
:101C400008603AE098489449096850F82110924891
:101C500000686438944A42F8201094488E49096814
:101C600050F821108C4800686438904A42F82010DF
:101C70008D488949096850F82100894909688842D6
:101C800006D289488449096850F8210084490860CF
:101C900085488149096850F82100824909688842CD
:101CA00006D981487C49096850F821007D490860BF
:101CB00079480068401C7849086077480068B0F5AA
:101CC000FA7FBFDB4FF4C87073490860BFE0724809
:101CD0000068401E744951F820007549086000BF33
:101CE000744800680128FBD07349072004F00DFDFB
:101CF000714800788007800B6F49497840EA0120DD
:101D00006D49897808436849634A126841F822009E
:101D10006948C0788007800B6749097940EA01204B
:101D200065494979084361495B4A126841F82200D4
:101D30005D485949096850F821005D4909688842A1
:101D400031D95949544A126851F82210584A126838
:101D5000881AFEF7CEFD5949086052490968504A71
:101D60001268881AFEF7C5FD0446214653480068EC
:101D7000FEF768FC51490860514950480068FEF779
:101D80002FFC4E49086008460068FEF7D5FD4D4916
:101D90000968081A4B49086008460068002833DAC9
:101DA0000020086030E040493B4A126851F8221098
:101DB0003F4A1268501AFEF79CFD404908603949B5
:101DC0000968374A1268881AFEF793FD04462146CF
:101DD0003A480068FEF736FC384908603849374809
:101DE0000068FEF7FDFB3549086008460068FEF70D
:101DF000A3FD344909680844324908600846006870
:101E0000FF2801DDFF2008602F480078012814D149
:101E10002E480078012810D12D48006878280CDA67
:101E20002C480068652808DA294800782A49087093
:101E3000284800782949087004E0002026490870E5
:101E40002649087014480068401C1349086012486D
:101E50000068B0F5FA7FFFF63AAF1B481C491B4AF1
:101E60001C4BCDE9002102900F4A1D4801680F4824
:101E700004F0FAFC1648006868B115480068FEF7DF
:101E80003DFD0646174A184BFEF7C1FC0446FEF717
:101E90006CFD0F490860FEBD20000020FFFF03001D
:101EA000140000201800002094190020C411002004
:101EB0001C0000201C8121422D0000202800002051
:101EC00000007F43240000201000002008000020B4
:101ED0000C0000200400002033000020340000200B
:101EE000000000209A9999999999E93F1CB52749D2
:101EF000522002F0FAF826490870262808D025A0BA
:101F000003F014FB2149522002F0EFF82049087039
:101F10001F480078262838D11C4801F098FF262851
:101F200033D11A4802F04CF9184B1D4A1121602098
:101F300001F0C6FF1B480168112003F09FFA1A4800
:101F40008078012808D11948007828B1164800780F
:101F500010B90220144908701549112002F0EEFA58
:101F6000262812D10948C07808498978CDE900109F
:101F70000648437802780FA1174803F0E7FA16499C
:101F800016A003F0D3FA02F06CF81CBD5009002033
:101F900054090020D1B0BFA8CAA7B0DC0A000000D5
:101FA0004009002048090020745B00208C090020B3
:101FB0004C09002054686520436172642049442024
:101FC00069733A202530325825303258253032583E
:101FD00025303258000000002849002025730D0AE2
:101FE0000000000010B5044614B101200E4908702D
:101FF0000D48007870B101210C48FFF7E1FC48B9A9
:1020000000200949087001210848FFF7D9FC48B9A8
:10201000012010BD01210548FFF7D2FC012801D1A4
:10202000014908700020F4E750000020000801403A
:1020300008B50121142002F0BDF94FF40050ADF8AD
:10204000000010208DF8030003208DF8020069467F
:102050000648FFF7E2FB0220ADF80000694604489D
:10206000FFF7DBFB00200349086008BD00100140BA
:1020700000080140B401224210B50446412C24D18D
:1020800008210846FEF7F8FF3D21112003F036FA3B
:102090008621172003F032FA7F21262003F02EFA42
:1020A0001E212D2003F02AFA00212C2003F026FA0D
:1020B0008D212A2003F022FA3E212B2003F01EFA64
:1020C000022004F067F801F0B5FE10BD10B504461B
:1020D000207B012802D1206803F04CFA0020206008
:1020E0006060A060207310BD0246002301230DE054
:1020F00002F07F000870D2092AB1087840F0800011
:102100000870491C01E0184670475B1C042BEFDD8A
:102110004FF0FF30F8E7000070B5C2B004464FF44E
:10212000807102A8FEF741F867A0008820804FF474
:10213000807102A8FEF739F86448C078634989784D
:10214000CDE9001061484378027861A102A803F04C
:10215000FDF902A92046FEF733F864480068142808
:1021600015DD62480068962811DA6148007870B180
:102170004FF4807102A8FEF718F85C485DA1026870
:1021800002A803F0E3F902A92046FEF719F84FF47C
:10219000807102A8FEF709F85A498868FEF704FC26
:1021A00005462A460B4658A102A803F0CFF902A91A
:1021B0002046FEF705F84FF4807102A8FDF7F5FF01
:1021C00050494869FEF7F0FB05462A460B4652A1E6
:1021D00002A803F0BBF902A92046FDF7F1FF4FF476
:1021E000807102A8FDF7E1FF4649C868FEF7DCFBF5
:1021F00005462A460B464CA102A803F0A7F902A9FE
:102200002046FDF7DDFF4FF4807102A8FDF7CDFFFA
:102210003C48027E49A102A803F098F902A9204691
:10222000FDF7CEFF4FF4807102A8FDF7BEFF4748CF
:102230000068C2B246A102A803F088F902A92046AC
:10224000FDF7BEFF4FF4807102A8FDF7AEFF4448D2
:10225000D0F81001C2B243A102A803F077F902A995
:102260002046FDF7ADFF4FF4807102A8FDF79DFFFA
:102270004048828840A102A803F068F902A92046DC
:10228000FDF79EFF4FF4807102A8FDF78EFF3948DD
:1022900042883DA102A803F059F902A92046FDF7A2
:1022A0008FFF4FF4807102A8FDF77FFF3AA102A8CB
:1022B00003F04CF902A92046FDF782FF2046FDF706
:1022C000A7FFC0B242B070BD7B00000050090020E3
:1022D0002272666964223A222530325825303258FB
:1022E0002530325825303258222C00000C000020B6
:1022F00008000020226865617274223A2225642257
:102300002C000000745B00202274656D70223A225C
:10231000252E3266222C00002268756D69223A2231
:10232000252E3266222C00002274656D705F7622A5
:102330003A22252E3266222C00000000226D6F64A6
:1023400065223A222564222C0000000014812142DB
:102350002272656C617931223A222564222C0000B8
:10236000008021422272656C617932223A22256412
:10237000222C0000940900202274656D705F742285
:102380003A222564222C00002268756D695F742250
:102390003A222564220000007D00000070B504464A
:1023A0000E460025206898B901202073304603F0BE
:1023B0000FF920602068E0B100206060A66003E0B3
:1023C0000020216848556D1CA068A842F8D810E08C
:1023D0000220207303E00020216848556D1CA0688E
:1023E000A842F8D800206060A068B04201D2002066
:1023F000206070BD2DE9FF5F07460D4690463846C8
:10240000FDF706FF86B22846FDF702FF1FFA80FAA5
:102410004FF00009B01D03F0DBF804461CB90120A1
:1024200004B0BDE8F09FB11D2046FDF7BEFE12A02E
:10243000016821608088A080324639462046FDF739
:10244000FCFE2846FDF7E4FE8346012000210091B2
:102450005B462A46CDE90208019121460A2000F098
:102460005FF910B94FF0000901E04FF00109204673
:1024700003F080F84846D3E724637273702F00009E
:102480002DE9FF4F83B082468B469146159C00256F
:10249000002002900F2701904846FDF7B9FE0FFA81
:1024A00080F8B9F1000F03D1012007B0BDE8F08F2B
:1024B00008F10200384487B2109808B145F00205CF
:1024C000129878B145F004051298FDF7A1FEC0B24C
:1024D00002901398FDF79CFE01460298001D0844E7
:1024E000384487B2119820B1012804D0022808D1BD
:1024F00004E000BF07E045F00C0504E045F01405DA
:1025000001E00220D1E700BF149808B145F024058E
:10251000BAF1000F02D0BBF1000F01D10320C4E7D4
:1025200045F0C0055046FDF773FE06465846FDF7D8
:102530006FFE3044001D384487B239462046FFF70D
:102540002DFF206808B90420AFE739462068FDF761
:102550002CFE10216268501C606020688154D4E910
:102560000023D118781FFFF7BFFD00B2019001983A
:10257000002804DA2046FFF7A9FD052095E76168E9
:1025800001980844606000216268501C6060206807
:10259000815404216268501C6060206881544D2180
:1025A0006268501C60602068815451216268501C30
:1025B00060602068815454216268501C606020680B
:1025C00081546268501C60602068815404216268F4
:1025D000501C6060206881546168481C60602068FD
:1025E00045540698010A6268501C60602068815456
:1025F0000698C1B26268501C606020688154C8F3BC
:1026000007216268501C6060206881546268501C19
:102610006060206800F80280D4E900128818424601
:102620004946FDF70AFE60684044606005F004001A
:10263000B8B30026139808B938A013901298FDF784
:10264000E7FD86B2310A6268501C606020688154E0
:102650006268501C606020688654D4E900128818B3
:1026600032461299FDF7E9FD6068304460601398C6
:10267000FDF7CEFD86B2310A6268501C60602068AA
:1026800081546268501C606020688654D4E900124E
:10269000881832461399FDF7D0FD606830446060B9
:1026A00000BF05F08000C8B15046FDF7B1FD86B20D
:1026B000310A6268501C6060206881546268501C56
:1026C000606020688654D4E900128818324651466A
:1026D000FDF7B3FD60683044606000BF05F0400066
:1026E000C8B15846FDF794FD86B2310A6268501CA5
:1026F0006060206881546268501C60602068865465
:10270000D4E90012881832465946FDF796FD6068F4
:102710003044606000BF0020C7E6000000000000F9
:102720002DE9FF4F83B0834690469946139C0026BF
:1027300000250020029001900027BBF1000F03D17B
:10274000012007B0BDE8F08F00250AE00498405D45
:10275000232803D00498405D2B2801D10220F0E704
:102760006D1C0498405D0028F0D147F030071198A7
:1027700008B147F0010705EB0900861C109820B14D
:10278000012804D002280AD105E000BF09E047F083
:102790000207B61C05E047F00407B61C01E0032061
:1027A000CFE700BF98F80000022822D14FF0000ABE
:1027B00000BF50460AF1010A18F800007D28F8D140
:1027C000AAF1030A0AF1070002900298A9EB000A95
:1027D000F01CA0EB0A012046FFF7E0FD206808B9D5
:1027E0000420AEE7F21CA2EB0A012068FDF7DDFC35
:1027F0000BE0F11C2046FFF7D1FD206808B904204A
:102800009FE7F11C2068FDF7D0FC6168481C606000
:1028100020684754D4E9000281183046FFF764FC71
:1028200001900198002804DA2046FFF74FFC0520AC
:1028300087E76168019808446060C5F30721626812
:10284000501C6060206881546268501C6060206881
:102850008554D4E9001288182A460499FDF7EDFC46
:10286000606828446060109860B14FEA1B2162687C
:10287000501C6060206881546268501C6060206851
:1028800000F802B0B8F1000F19D098F80000022843
:102890000BD1D4E9001288184146029AFDF76CFC6E
:1028A000616802980844606009E0D4E90012881861
:1028B0004A464146FDF760FC60684844606000207D
:1028C0003FE770B505460C4604212046FFF766FD3C
:1028D000206808B9012070BD40216268501C60600A
:1028E0002068815402216268501C60602068815415
:1028F00029126268501C6060206881546268501C14
:102900006060206885540020E5E770B505460C46F8
:1029100004212046FFF742FD206808B9012070BD60
:1029200070216268501C60602068815402216268D6
:10293000501C60602068815429126268501C6060DD
:10294000206881546268501C6060206885540020B3
:10295000E5E770B505460C4604212046FFF71EFD4D
:10296000206808B9012070BD50216268501C606069
:102970002068815402216268501C60602068815484
:1029800029126268501C6060206881546268501C83
:102990006060206885540020E5E770B505460C4668
:1029A00004212046FFF7FAFC206808B9012070BD19
:1029B00062216268501C6060206881540221626854
:1029C000501C60602068815429126268501C60604D
:1029D000206881546268501C606020688554002023
:1029E000E5E72DE9FF5F8046174699460E9C0026D5
:1029F000B246B3460025B8F1000F03D1012004B060
:102A0000BDE8F09F0BE057F8250008B90220F6E773
:102A100057F82500FDF7FCFB0644681CC5B24D4580
:102A2000F1DB09EB4900801C00EB060A0AF1050105
:102A30002046FFF7B3FC206808B90320DFE78221B6
:102A40006268501C606020688154D4E900028118DB
:102A50005046FFF749FB0FFA80FBBBF1000F04DA89
:102A60002046FFF733FB0420C9E7606858446060E4
:102A70004FEA18216268501C6060206881546268C7
:102A8000501C6060206800F80280002524E057F8A0
:102A90002500FDF7BDFB0646C6F307216268501C02
:102AA0006060206881546268501C606020688654B1
:102AB000D4E90023D01857F825103246FDF7BDFBA6
:102AC0006068304460600198C1B26268501C606008
:102AD00020688154681CC5B24D45D8DB00208EE7C4
:102AE000F0B504460D462646012300201060002163
:102AF00014E0775C07F07F07106807FB03001060A5
:102B0000705C00F0800008B9481CF0BDDB01B3F533
:102B1000001F02D36FF00100F7E7491CA942E8DB70
:102B20004FF0FF30F1E72DE9F84380460C4615469B
:102B30001E462F2108F10600FDF760FB0746002026
:102B4000009017B90120BDE8F8837F1C6A46042174
:102B500008F10100FFF7C4FF252002F039FD2060D5
:102B6000206808B90220EEE725212068FDF71DFB4B
:102B7000242239462068FDF7FFFA243700982C38C4
:102B800030803188481C02F023FD2860286820B975
:102B9000206802F0EFFC0320D5E73288511C28683A
:102BA000FDF703FB328839462868FDF7E5FA002077
:102BB000C9E701464878022801D00120704788788B
:102BC00010B18878012801D1C878F7E7FF20F5E730
:102BD0002DE9FC5F81460D4614461E46DDE90C8B4F
:102BE00099F8000000F00F0A002001900AF0080098
:102BF0000090CAF341008BF8000001AA042109F1FA
:102C00000100FFF76DFF4844471C0198022802D3DA
:102C10000AF0010010B1FF20BDE8FC9F78783978F8
:102C200040EA012020802088801C0199884201D937
:102C3000FF20F1E754A1B81CFDF7CEFA08B10F2030
:102C4000EAE79BF8000020B101283DD0022877D1A7
:102C50003BE0009808B1FF20DEE72188481C02F025
:102C6000B7FC2860286808B9FF20D5E72288511CE6
:102C70002868FDF79AFA2288B91C2868FDF77CFAC3
:102C80000198801E2188401AA8F80000B8F80010AA
:102C9000481C02F09DFC3060306820B9286802F0C2
:102CA00069FCFF20B8E7B8F80020511C3068FDF738
:102CB0007CFAB8F80020B4F800C0BB1C0CEB030190
:102CC0003068FDF759FA4FE000BF2088801C019959
:102CD000884201D9FF209FE72088C01C395C2088EA
:102CE000801C385C41EA00210E9801800E9808B9DA
:102CF000FF2091E72188481C02F06AFC28602868C0
:102D000008B9FF2088E72288511C2868FDF74DFA92
:102D10002288B91C2868FDF72FFA0198001F218826
:102D2000401AA8F80000B8F80010481C02F050FC47
:102D30003060306828B9286802F01CFCFF206BE77F
:102D400010E0B8F80020511C3068FDF72EFAB8F8F2
:102D50000020B4F800C03B1D0CEB03013068FDF708
:102D60000BFA01E0FF2057E700BF2B212846FDF7B3
:102D700045FA20B923212846FDF740FA08B1FF2083
:102D80004AE7002048E700002463726571000000F4
:102D900001464878022801D001207047887820B980
:102DA000C8780A2801D10020F7E70120F5E701469D
:102DB0004878022801D001207047887820B9C87867
:102DC0000A2801D10020F7E70120F5E701464878FD
:102DD000022801D001207047887820B9C8780A28D5
:102DE00001D10020F7E70120F5E7024650780228DC
:102DF00001D0012070479078B0EB112F05D1D07829
:102E0000CBB2984201D10020F4E70120F2E70000A4
:102E1000F8B50446FF2720780511012D01DB0E2DA2
:102E200001DD3846F8BD032D24D1002000906A460C
:102E30000421601CFFF754FE2044461C0098022821
:102E400003D3207800F0010008B1FF20EAE7707892
:102E5000317840EA0120801C0099884201D9FF2086
:102E6000E0E706A1B01CFDF7B7F908B10F2700E0B5
:102E7000032700E02F463846D4E70000246372653C
:102E8000710000000146FF208A78A2B9CA78142A8E
:102E900011D10A7932B1012A05D0022A04D0802A40
:102EA00006D103E000BF00BF002003E0012001E0E5
:102EB000022000BF00BF7047014601208A781AB97E
:102EC000CA781E2A00D10020704700BFFEE700002C
:102ED00010B5A2B00446802102A8FDF766F915A03E
:102EE00000882080802102A8FDF75FF91248C07891
:102EF00011498978CDE900100F48437802780FA175
:102F000002A802F023FB02A92046FDF759F980210F
:102F100002A8FDF74AF910A102A802F017FB02A9C6
:102F20002046FDF74DF92046FDF772F9C0B222B0F8
:102F300010BD00007B000000500900202272655F78
:102F40006964223A222530325825303258253032F1
:102F500058253032582200007D00000070470000E4
:102F600070B5002100230F22C47804B3154C2468E7
:102F700004F4E064C4F5E064210AC1F10403CA402A
:102F8000447804FA03F184781440214309010E4C7B
:102F90000678A155047804F01F050124AC4005789B
:102FA0006D11AD0005F1E025C5F8004109E0047898
:102FB00004F01F050124AC40044D0678761145F855
:102FC000264070BD0CED00E000E400E080E100E090
:102FD00002490143024A1160704700000000FA05EF
:102FE0000CED00E000B58DB000F076F821A1684648
:102FF00002F0ACFA6A460021084600F045F921A229
:1030000021A1684602F0A2FA6A460221002000F0DF
:103010003BF922A224A1684602F098FA6A460421EC
:10302000002000F031F925A1684602F08FFA6A46C7
:103030000621002000F028F9FEF7E2F903E04FF442
:10304000967003F081F800F013FA0028F7D103E03E
:103050004FF4967003F078F801211D4800F074FEDB
:103060000028F5D13C201B49087000F035F80DB060
:1030700000BD00002DC7EBB4F2BFAA57494649C8AE
:10308000C8B5E3004E4554002DC3FBB3C63A2573C3
:103090002020202020202020200000003132333446
:1030A00035363738000000002DC3DCC2EB3A2573FB
:1030B0002020202020202020200000002DC6B5C286
:1030C000CA3A20322E342047487A202020000000BF
:1030D000380000208C09002010B5002000F025F8F1
:1030E00010BD10B504461CB90021A62000F07EF9E1
:1030F000012C03D10021A72000F078F910BD10B5F4
:1031000004463CB90021C82000F070F90021A1203C
:1031100000F06CF9012C07D10021C02000F066F905
:103120000021A02000F062F910BD70B50646002411
:1031300019E004F1B001C8B2002100F057F90021F4
:10314000084600F053F90021102000F04FF9002547
:1031500005E00121304600F049F9681CC5B2822D16
:10316000F7DB601CC4B2082CE3DB70BD08B501219D
:10317000082001F01FF94FF47040ADF80000102056
:103180008DF8030003208DF8020069463D48FEF7E4
:1031900044FB4FF470413B48FEF71DFC0021AE207C
:1031A00000F024F90021084600F020F90021102049
:1031B00000F01CF90021402000F018F900218120C6
:1031C00000F014F90021CF2000F010F90021A12017
:1031D00000F00CF90021C82000F008F90021A62019
:1031E00000F004F90021A82000F000F900213F20A0
:1031F00000F0FCF80021D32000F0F8F80021084688
:1032000000F0F4F80021D52000F0F0F80021802033
:1032100000F0ECF80021D92000F0E8F80021F120BE
:1032200000F0E4F80021DA2000F0E0F8002112209C
:1032300000F0DCF80021DB2000F0D8F8002140206D
:1032400000F0D4F80021202000F0D0F80021022066
:1032500000F0CCF800218D2000F0C8F800211420E7
:1032600000F0C4F80021A42000F0C0F80021A6203E
:1032700000F0BCF80021AF2000F0B8F8FFF72CFFF9
:1032800008BD0000000C01402DE9F04707468846C4
:103290001646002584E03078A02845DD00253CE076
:1032A000702F04DD002708F1020000F0FF083078DD
:1032B0003E4911F8151088422ED17078012101EB9A
:1032C00045013A4A515C884226D14146384600F0D1
:1032D00077F8002407E004EB4511354A505C0121E2
:1032E00000F084F8641C102CF5D308F10100C1B281
:1032F000384600F065F8002408E004EB4511103171
:103300002B4A505C012100F071F8641C102CF4D39E
:1033100007F11000C7B204E06D1C26480068854222
:10332000BED300BFB61C3BE07A2F04DD002708F1B6
:10333000020000F0FF0831781F48FCF75FFF81466C
:10334000B9F1000F2BD04146384600F039F800247F
:103350000AE099F80010203904EB0111174A505C7B
:10336000012100F043F8641C082CF2D308F101009D
:10337000C1B2384600F024F800240BE099F80010A0
:10338000203904EB011108310C4A505C012100F096
:103390002DF8641C082CF1D307F10800C7B2761C85
:1033A000307800287FF477AFBDE8F087A4080020CC
:1033B000440600202C090020CB08002054000020E7
:1033C00070B504460D4605F1B001C8B2002100F009
:1033D0000DF8102141EA1410002100F007F804F064
:1033E0000F00002100F002F870BD000070B5044627
:1033F0000E462EB14FF480411C48FEF7ECFA04E073
:103400004FF480411948FEF7E4FA4FF400411748A1
:10341000FEF7DFFA00251BE04FF480511348FEF75A
:10342000D8FA04F0800028B14FF400510F48FEF79D
:10343000D2FA04E04FF400510C48FEF7CAFA4FF4F8
:1034400080510A48FEF7C7FA6006040E681CC5B230
:10345000082DE1DB4FF400410448FEF7BCFA4FF4BD
:1034600080410248FEF7B7FA70BD0000000C014031
:1034700030B58BB000200790089009900A90012584
:10348000354B364A36A13CA002F050F807A800217F
:1034900002910391CDE9041000912B022E4A019173
:1034A0002E492FA0FEF7ECFF002843D1089A91B2D5
:1034B0000798FEF7B5F8FA20FDF77AFF0446002CCE
:1034C0002FD02046FFF7A4FC02282AD12046FFF780
:1034D00070FB062820D2DFE800F0030B0F13171B48
:1034E0002DA002F023F8002500203049C87017E015
:1034F0002FA002F01BF813E034A002F017F80FE041
:103500003BA002F013F80BE041A002F00FF807E037
:1035100048A002F00BF803E051A002F007F800BF4A
:1035200000BF2248C078401C2049C87007A8FEF799
:10353000CDFD07E01D48C078401C1C49C8704FA055
:1035400001F0F4FF1948C078022801DD01F044FAC7
:1035500028460BB030BD0000647B0008207B0008CB
:10356000736D617274646576696365266839736A20
:10357000347673326A65590050524F49443A2025D7
:103580007309415549463A20257309444556494433
:103590003A25730D0A000000546970733A09C1ACF2
:1035A000BDD3B3C9B9A60D0A00000000745B0020AA
:1035B0005741524E3A09C1ACBDD3CAA7B0DCA3BA39
:1035C000D0ADD2E9B4EDCEF30D0A00005741524E12
:1035D0003A09C1ACBDD3CAA7B0DCA3BAB7C7B7A874
:1035E000B5C4636C69656E7469640D0A00000000FF
:1035F0005741524E3A09C1ACBDD3CAA7B0DCA3BAF9
:10360000B7FECEF1C6F7CAA7B0DC0D0A0000000075
:103610005741524E3A09C1ACBDD3CAA7B0DCA3BAD8
:10362000D3C3BBA7C3FBBBF2C3DCC2EBB4EDCEF389
:103630000D0A00005741524E3A09C1ACBDD3CAA78A
:10364000B0DCA3BAB7C7B7A8C1B4BDD328B1C8C846
:10365000E7746F6B656EB7C7B7A8290D0A00000045
:103660004552523A09C1ACBDD3CAA7B0DCA3BACE09
:10367000B4D6AAB4EDCEF30D0A0000005741524E65
:103680003A094D5154545F5061636B6574436F6EDA
:103690006E656374204661696C65640D0A00000004
:1036A00010B5C0B004464FF480716846FCF77DFD4C
:1036B00044A00088208069462046FCF781FD4FF435
:1036C00080716846FCF771FD3FA1684601F03EFF3E
:1036D00069462046FCF774FD4FF480716846FCF79C
:1036E00064FD43A1684601F031FF69462046FCF7BE
:1036F00067FD4FF480716846FCF757FD3FA16846AF
:1037000001F024FF69462046FCF75AFD4FF4807112
:103710006846FCF74AFD3C4842783CA1684601F007
:1037200015FF69462046FCF74BFD4FF48071684653
:10373000FCF73BFD3848027838A1684601F006FFE7
:1037400069462046FCF73CFD4FF480716846FCF763
:103750002CFD2D48828B35A1684601F0F7FE6946A5
:103760002046FCF72DFD4FF480716846FCF71DFDE7
:103770002548C28B30A1684601F0E8FE6946204624
:10378000FCF71EFD4FF480716846FCF70EFD2DA17D
:10379000684601F0DBFE69462046FCF711FD4FF458
:1037A00080716846FCF701FD26A1684601F0CEFE57
:1037B00069462046FCF704FD2046FCF729FDC0B20F
:1037C00040B010BD7B000000226D6574686F6422FC
:1037D0003A227468696E672E736572766963652E26
:1037E00070726F70657274792E736574222C00008C
:1037F000226964223A2231222C0000002270617278
:10380000616D73223A7B0000745B002022666C615C
:103810006765223A25642C00945B00202268616E63
:10382000676572223A25642C00000000226C6967EB
:103830006874223A25642C00227261696E223A254E
:10384000640000007D00000070B58CB006460020CA
:10385000089009900A900B900790069005900490AC
:103860000024039000253046FFF7D2FA0446E01EFC
:103870000D2870D2DFE800F028707B93ADCDB5CD78
:10388000C1CDCDCD070004AB07AA06A93046FFF78E
:103890004AF90546BDB9BDF810306BA0DDE9061246
:1038A00001F044FE08AADDE90601FEF7A3FD50B9C8
:1038B0006EA001F03BFE099A91B20898FDF7B0FEA8
:1038C00008A8FEF703FCA7E06E4803A904AA07AB0B
:1038D000CDE90021029005AA06A93046FFF778F944
:1038E0000546002D36D1BDF810000090BDF814201B
:1038F00065A0DDE9061301F019FE9DF80C00012812
:1039000002D0022824D111E008A95E480088FEF701
:10391000D8FF50B96BA001F009FE099A91B208983E
:10392000FDF77EFE08A8FEF7D1FB12E008A9554876
:103930000088FFF70EF850B968A001F0F7FD099A6A
:1039400091B20898FDF76CFE08A8FEF7BFFB00E0F7
:1039500000BF00BF60E05CE03046FFF719FA10B925
:1039600064A001F0E3FD3C206A49087054E0304651
:10397000FFF72CFA90B968A001F0D8FD08A90A2039
:10398000FFF70BF850B96AA001F0D0FD099A91B287
:103990000898FDF745FE08A8FEF798FB3CE039487B
:1039A00001883046FFF721FA90B967A001F0BEFD0B
:1039B00008A90A20FEF7A9FF50B969A001F0B6FDD9
:1039C000099A91B20898FDF72BFE08A8FEF77EFB36
:1039D00022E03046FFF7EBF910B968A001F0A6FD30
:1039E0001AE03046FFF74EFA18B96AA001F09EFDC2
:1039F00002E06FA001F09AFD0EE03046FFF75CFA9E
:103A000018B972A001F092FD02E077A001F08EFDDE
:103A100002E04FF0FF3500BF00BFFDF7BBFC681CA4
:103A200008B90CB070BD079810B1079802F07EFD80
:103A30000F2C01D0032C05D1069801F09BFD0798AF
:103A400001F098FD00BFECE7636D6469643A2025DE
:103A5000732C207265713A2025732C207265715F7A
:103A60006C656E3A2025640D0A000000546970737D
:103A70003A0953656E6420436D64526573700D0A94
:103A8000000000008E090020746F7069633A2025E1
:103A9000732C20746F7069635F6C656E3A202564C7
:103AA0002C207061796C6F61643A2025732C207032
:103AB00061796C6F61645F6C656E3A2025640D0AF4
:103AC00000000000546970733A0953656E64205019
:103AD00075626C69736841636B0D0A005469707399
:103AE0003A0953656E64205075626C69736852655B
:103AF000630D0A00546970733A094D5154542050B3
:103B000075626C6973682053656E64204F4B0D0AB3
:103B1000000000008C090020546970733A09526556
:103B200076205075626C6973685265630D0A0000F7
:103B3000546970733A0953656E64205075626C69FC
:103B4000736852656C0D0A00546970733A095265C6
:103B500076205075626C69736852656C0D0A0000BE
:103B6000546970733A0953656E64205075626C69CC
:103B70007368436F6D700D0A000000005469707324
:103B80003A09526576205075626C697368436F6DAF
:103B9000700D0A00546970733A094D515454205302
:103BA0007562736372696265204F4B0D0A000000F5
:103BB000546970733A094D515454205375627363BC
:103BC00072696265204572720D0A00005469707353
:103BD0003A094D51545420556E537562736372699E
:103BE0006265204F4B0D0A00546970733A094D51BC
:103BF000545420556E537562736372696265204533
:103C000072720D0A0000000010B5C8B00020449088
:103C100045904690479000244FF4807104A8FCF72B
:103C2000C4FA04A8FFF73CFD0446002C19D044A8B0
:103C300001210022CDE90012234604AACDE9021099
:103C400009A10A20FEF76CFD40B9459A91B244984B
:103C5000FDF7E6FC44A8FEF739FA02E010A001F0F7
:103C600065FC48B010BD00002F7379732F6839735D
:103C70006A364F58576358582F736D617274646574
:103C8000766963652F7468696E672F6576656E74F3
:103C90002F70726F70657274792F706F737400007B
:103CA0005741524E0D0A000030B5C9B004460020FD
:103CB000459046904790489000254FF4807105A8A4
:103CC000FCF773FA012C02D0022C0AD104E005A8FB
:103CD000FEF722FA054605E005A8FFF7F9F80546C4
:103CE00000E000BF00BFCDB145A801210022CDE911
:103CF00000122B4605AACDE9021009A10A20FEF701
:103D00000FFD40B9469A91B24598FDF789FC45A848
:103D1000FEF7DCF902E00AA001F008FC49B030BD72
:103D20002F62726F6164636173742F6839736A34D0
:103D30007673326A65592F7465737432000000001F
:103D40005741524E0D0A0000F0B585B004460D46AD
:103D500000260020019002900390049006E054F8A1
:103D600026101FA001F0E2FB701CC6B2AE42F6DBCB
:103D700001A82B462246022100901420FEF731FEB6
:103D800000282BD1029A91B20198FDF749FC4FF41B
:103D9000FA70FDF70DFB07463846FFF739F809289A
:103DA0000AD115A001F0C2FB01A8FEF78FF900208F
:103DB0001849C87005B0F0BD17A001F0B7FB01A805
:103DC000FEF784F91348C078401CC0B21149C8708E
:103DD000022801DD00F000FE0120EBE70120E9E709
:103DE00053756273637269626520546F7069633AD8
:103DF0002025730D0A000000546970733A094D5173
:103E0000545420537562736372696265204F4B0D81
:103E10000A000000745B0020546970733A094D5128
:103E200054542053756273637269626520457272DF
:103E30000D0A000010B5142000F0C0FB044604F089
:103E4000030018B90321142000F003FD10BDF0B5E4
:103E500087B00546002708210846FDF70DF9002127
:103E60000D2001F04BFB80210E20FDF705F993207A
:103E70008DF8080020208DF8090001A802AB02226D
:103E800002A900900C2000F053F80646262E10D10F
:103E9000002407E002A8005D285502A8005D474005
:103EA000601CC4B2042CF5DB02A8005DB84200D04F
:103EB000BB2680210E2000F0CCFC304607B0F0BDC0
:103EC0002DE9F04387B006460F46904699468DF897
:103ED00008608DF80970002406E018F8041002AAA2
:103EE000A01C1154601CC4B2062CF6DB002407E0B1
:103EF00019F8041002AA04F108001154601CC4B29D
:103F0000062CF5DB01A802AB0C2202A900900E20C2
:103F100000F00EF80546262D05D1082000F04EFBD6
:103F200000F0080000B9BB25284607B0BDE8F083C3
:103F30002DE9FE4F0646884691469A46DDF830B098
:103F4000BB2002900020019000900C2E06D00E2E77
:103F500009D1122001901020009005E077200190F7
:103F60003020009000E000BF00BF019840F08001C9
:103F7000022001F0C3FA80210420FDF77DF8002122
:103F8000012001F0BBFA80210A2000F062FC00252C
:103F900005E018F80510092001F0B0FA6D1C4D4538
:103FA000F7D33146012001F0A9FA0C2E03D180216C
:103FB0000D2000F04EFC4FF47A7500BF042000F095
:103FC000FDFA04466D1E35B104F0010018B90098E1
:103FD00020400028F2D080210D20FDF74DF895B348
:103FE000062000F0EBFA00F01B0068BB26200290D0
:103FF0000198204000F0010008B1CC2002900C2E66
:1040000024D10A2000F0DAFA04460C2000F0D6FA97
:1040100000F007072FB1601E07EBC000CBF80000CF
:1040200002E0E000CBF8000004B90124122C00DD0E
:104030001224002505E0092000F0C0FA0AF8050066
:104040006D1CA542F7D301E0BB20029080210C201B
:1040500000F0FFFB0021012001F050FA0298BDE8BA
:10406000FE8F00B587B050208DF8080000208DF835
:1040700009000DF10A02022102A8FCF771FF01A854
:1040800002AB042202A900900C20FFF751FF26206A
:1040900007B000BDF0B587B005460E4630208DF85C
:1040A00008008DF809500DF10A02022102A8FCF760
:1040B00057FF01A802AB042202A900900C20FFF7D1
:1040C00037FF0746262F0CD10198902809D10024EC
:1040D00004E002A8005D3055601CC4B2102CF8DB6F
:1040E00000E0BB27384607B0F0BD70B588B0054684
:1040F0000C4608210846FCF7BFFF07210D2001F000
:10410000FDF90321142000F0A4FB8DF80C5002A847
:1041100003AB012203A900900C20FFF709FF06461C
:10412000262E09D10298102806D19DF80C00207087
:104130009DF80D00607000E0BB26304608B070BDF1
:1041400010B504211D48FDF746FC012002F022F8BD
:1041500004211A48FDF73DFC012002F01BF8042160
:104160001648FDF738FC012002F014F80F21012059
:1041700001F0C4F900BF012000F020FA00F01000A7
:104180000028F8D1012002F005F83D21112001F0AE
:10419000B5F91E212D2001F0B1F900212C2001F0EC
:1041A000ADF98D212A2001F0A9F93E212B2001F043
:1041B000A5F94021152001F0A1F910BD000801402A
:1041C00070B588B0054693208DF80C0070208DF8EE
:1041D0000D0000208DF8120000240BE0295D03AAD9
:1041E000A01C11549DF81200295D48408DF8120062
:1041F000601CC4B2042CF1DB0DF11302072103A8EB
:10420000FCF7AEFE08210846FCF736FF02A803AB18
:10421000092203A900900C20FFF78AFE0646262EED
:1042200003D10298182800D100E0BB26304608B020
:1042300070BDF0B587B006460F46A0208DF8080087
:104240008DF809600DF10A02022102A8FCF788FE30
:1042500001A802AB042202A900900C20FFF768FE1F
:104260000546262D08D10198042805D19DF808009F
:1042700000F00F000A2800D0BB25262D22D10024F3
:1042800004E0385D02A90855601CC4B2102CF8DBAC
:1042900006AA102102A8FCF763FE01A802AB1222B5
:1042A00002A900900C20FFF743FE0546262D08D1F9
:1042B0000198042805D19DF8080000F00F000A2895
:1042C00000D0BB25284607B0F0BD704710B500F000
:1042D0000BF804210348FDF77EFB08210148FDF798
:1042E0007AFB10BD0008014008B50121042000F050
:1042F00061F80820ADF8000003208DF802001020BE
:104300008DF8030069462248FDF787FA0121042051
:1043100000F050F82020ADF8000003208DF80200D6
:1043200010208DF8030069461948FDF776FA01213F
:10433000042000F03FF88020ADF8000003208DF845
:10434000020010208DF8030069461148FDF765FA58
:104350000121042000F02EF84020ADF800000420D8
:104360008DF8030069460A48FDF757FA0121042039
:1043700000F020F80420ADF8000003208DF80200C2
:1043800010208DF8030069460148FDF746FA08BD84
:104390000008014029B1064AD2690243044BDA61A0
:1043A00004E0034AD2698243014BDA61704700009E
:1043B0000010024029B1064A92690243044B9A61F7
:1043C00004E0034A92698243014B9A6170470000FE
:1043D0000010024030B500210022002400232D4DA2
:1043E0006D6805F00C0121B1042905D0082923D1FD
:1043F00005E0294D056022E0274D05601FE0254DB1
:104400006D6805F47012234D6D6805F48034022543
:1044100005EB92421CB9214D554305600BE01D4D43
:104420006D6805F400351DB11C4D5543056002E073
:10443000194D5543056002E0174D056000BF00BFF0
:10444000144D6D6805F0F0010909154D6B5C0568A8
:10445000DD4045600F4D6D6805F4E061090A104DBF
:104460006B5C4568DD4085600A4D6D6805F4605100
:10447000C90A0B4D6B5C4568DD40C560054D6D6834
:1044800005F44041890B074D6B5CC568B5FBF3F53E
:10449000056130BD0010024000127A0000093D00A5
:1044A000620900207209002008B501210820FFF7E9
:1044B00081FF1020ADF800008DF8030003208DF877
:1044C000020069461148FDF7A8F92020ADF8000068
:1044D00010208DF8030003208DF8020069460B4878
:1044E000FDF79BF90820ADF8000069460748FDF785
:1044F00094F908210548FDF76CFA10210348FDF7EF
:104500006AFA20210148FDF766FA08BD000C014057
:1045100000B5022206490748006800F0BBFA0222F3
:104520000349891E0448006800F0B4FA00BD000089
:104530009809002030090020340900202DE9FF41AE
:1045400007460D46BB2669463846FFF7A3FD0646DB
:10455000262E03D0304604B0BDE8F081002412E0DE
:104560001DF8041004F108001DF80000814208D075
:104570001DF80410201D1DF80000C043814200D02A
:1045800003E0601CC4B2042CEADB00BF042C10D191
:1045900026269DF800009DF8011000EB01209DF8F3
:1045A000021000EB01409DF8031000EB0160286051
:1045B00002E0BB26002028603046CCE770B50446F8
:1045C0007E2000EA440040F0800508210748FDF7FE
:1045D00000FA284600F012F900F0EAF80646082131
:1045E0000248FDF7F8F9304670BD000000080140B0
:1045F00070B50025002424E000BF10211348FDF70A
:10460000DFF90028F9D0282001F0C4FD10210F485F
:10461000FDF7D6F901280DD100BF10210B48FDF799
:10462000CFF90128F9D0C4F1070101208840C0B2B8
:10463000054304E0C4F10701012088408543601C64
:10464000C4B2082CD8DB284670BD00000008014029
:1046500010B50446FCF744FD10212448FDF7B9F9D4
:10466000122001F071FD10212048FDF7B4F91E2041
:1046700001F090FDFCF726FD10211C48FDF7A0F984
:1046800080BB00BF10211948FDF79AF90028F9D026
:1046900000BF10211548FDF793F90128F9D0FFF765
:1046A000A7FF2070FFF7A4FF6070FFF7A1FFA070C5
:1046B000FFF79EFFE070FFF79BFF2071FCF710FDF6
:1046C00010210A48FDF787F9207861780844A1781D
:1046D0000844E17808442179884201D1012010BDC5
:1046E0000020FCE7FFE70020F9E700000008014098
:1046F0002DE9FC4782462448FFF7AAFF2249C878E3
:10470000FCF70DF90646214A214BFCF780F80446D8
:104710000D461D498878FCF702F9804622462B4653
:10472000FBF7CEFFCDE90001FCF782F9CAF80800DB
:1047300015494878FCF7F3F80646144A144BFCF781
:1047400066F804460D4610490878FCF7E8F88046FC
:1047500022462B46FBF7B4FFCDE90001FCF768F9D0
:10476000CAF814000B48FCF7E1FC0B490861086922
:104770004FF07E51FCF782F903D2074800690649E1
:10478000C8600120BDE8FC879A0900207B14AE4771
:10479000E17A843F38090020745B002070B505463B
:1047A0000C46FFF7B5FE00202070012070BD000010
:1047B00070B500251CE06006040E20210E48FDF7B0
:1047C00008F9022001F0E6FC40210B48FDF7F8F85B
:1047D000012801D144F00104022001F0DBFC20217A
:1047E0000548FDF7F8F8022001F0D4FC681CC5B2BA
:1047F000082DE0DB204670BD0008014070B504467E
:10480000002520E004F0800020B180210F48FDF752
:10481000E2F803E080210D48FDF7DBF8022001F00B
:10482000B9FC20210948FDF7D4F8022001F0B2FCC0
:1048300020210648FDF7CFF8022001F0ABFC60060E
:10484000040E681CC5B2082DDCDB70BD00080140F9
:10485000704770B505460C462846FFF7AFFE064682
:1048600046EA0401284600F049FE70BD10B500F08C
:1048700001F810BD0CB5002001900090334800688D
:1048800040F480303149086000BF3048006800F4CF
:10489000003000900198401C0190009818B90198D0
:1048A000B0F5A06FF1D12948006800F4003010B1D4
:1048B0000120009001E0002000900098012843D1E1
:1048C0002348006840F0100021490860084600684D
:1048D00020F0030008600846006840F0020008600D
:1048E0001A484068194948600846406848600846C8
:1048F000406840F4806048600846406820F47C10BE
:1049000048600846406840F4E8104860084600687F
:1049100040F08070086000BF0C48006800F0007034
:104920000028F9D00948406820F003000749486092
:104930000846406840F00200486000BF03484068F5
:1049400000F00C000828F9D10CBD00000010024056
:104950000020024010B5012340F6C4120D490E4854
:1049600002F02AFF01234FF47A720C490C4802F03E
:1049700023FF01234FF47A620A490B4802F01CFF1F
:10498000054802F049FF064802F046FF064802F0DB
:1049900043FF10BD217600089821002045760008CD
:1049A000A8210020A5770008B8210020042808D1FC
:1049B0004FF0E021096941F004014FF0E02211615C
:1049C00007E04FF0E021096921F004014FF0E022F7
:1049D0001161704770470000012080F3138800BF09
:1049E00000BF0748006800F4E06006490843001D66
:1049F00003490860BFF34F8F00BF00BFFEE7000010
:104A00000CED00E00000FA0510B51348006840F016
:104A100001001149086008464068104908400E49E5
:104A20004860084600680E4908400B49086008467F
:104A3000006820F4802008600846406820F4FE00EA
:104A400048604FF41F008860FFF710FF4FF00060D0
:104A50000449086010BD0000001002400000FFF88B
:104A6000FFFFF6FE08ED00E010B501210820FFF77A
:104A7000A1FC01210846FFF79DFC01210348FCF73A
:104A800057FF01210248FCF753FF10BD000430001E
:104A90000002300030B503460D480488B3F1006FC2
:104AA00001D2012030BD4FF0006000EB842098421D
:104AB00001D20220F6E703E018780870491C5B1C5D
:104AC000101EA2F10105AAB2F6D100BFEAE700006C
:104AD000E0F7FF1F2DE9F84F8046894616465648F5
:104AE000B0F800A0A8F1006B4FEADB25CBF30A0079
:104AF00000900098C0F50067B8F1006F02D2012065
:104B0000BDE8F88F4FF0006000EB8A20404501D2ED
:104B10000120F5E749484A4948604A484860BE4292
:104B200000DC37467DE0484802F03CFF08B1022037
:104B3000E6E74FF0006101EBC5200A144349FFF797
:104B4000A9FF414802F02EFF08B10220D8E73C48F7
:104B5000006940F002003A4908614FF0006000EB44
:104B6000C52048610846006940F0400008613648A9
:104B700002F018FF08B10220C2E73148006941F68F
:104B8000FD7108402E490861002007E019F8002057
:104B9000009901442D4B5A54411C88B2B842F5DBB0
:104BA00000242AE0284802F0FDFE08B10220A7E711
:104BB0002348006940F0010021490861234810F8AA
:104BC0001400012101EB4401204A515C40EA01201C
:104BD0004FF0006101EBC52121F814001A4802F0E2
:104BE000E1FE08B102208BE71548006941F6FE712D
:104BF000084013490861601C84B2B4F5806FD1DBB2
:104C0000B74200D10EE0B9446D1C00200090F01BAB
:104C100086B2B6F5006F02DD4FF4006000E030466A
:104C2000074680E700BF0648006940F0800004495D
:104C30000861002064E70000E0F7FF1F23016745DB
:104C400000200240AB89EFCD8888880028390020F9
:104C500010B50121184800F047F858B3174800680C
:104C6000401C1649086002F0FFFD14480068192135
:104C7000B0FBF1F201FB120008B9FCF7A7F90F48ED
:104C800000684FF47A71B0FBF1F201FB120068B9D1
:104C900000200A490860FCF760F9094800780028FC
:104CA00004DD07480078401E0549087001210248CC
:104CB00000F00BF810BD000000080040AC09002017
:104CC0008C090020CA4302827047CA43028270479F
:104CD00021B1028842F00102028004E002884FF60E
:104CE000FE731A400280704730B502460020002350
:104CF0000024158A05EA0103958905EA010413B128
:104D00000CB1012000E0002030BD1AB183890B43B3
:104D1000838102E083898B4383817047002202886C
:104D20001D4B98420ED01D4B98420BD0B0F1804FD6
:104D300008D01B4B984205D01A4B984202D01A4B10
:104D4000984204D14FF68F731A404B881A43174B81
:104D5000984207D0164B984204D04FF6FF431A40B2
:104D6000CB881A4302808B8883850B8803850A4B86
:104D700098420BD0094B984208D00E4B984205D070
:104D80000D4B984202D00D4B984201D10B7A03860D
:104D90000123838270470000002C01400034014051
:104DA0000004004000080040000C004000100040DB
:104DB0000014004000400140004401400048014010
:104DC0000146022901D1024800BF00BF7047000020
:104DD0000008004010B540F225511D4800F086F84B
:104DE00010B31B4800F03EF9C4B21A48008800F422
:104DF0000040C8B91748008800F4804060B10A2C10
:104E000003D000201349088020E01248008840F4B5
:104E100000401049088019E00D2C06D10D4800888B
:104E200040F480400B49088010E00A480088C0F335
:104E30000D0009490C5407480088401C05490880AA
:104E400008460088C72801DD0020088010BD00004A
:104E500000380140600900204649002010B540F2AA
:104E600025510E4800F042F8B0B10D480088FF28E7
:104E700002D900200A4908800848001D0088C1B2F4
:104E8000074802880088401C054B1880054881545B
:104E90002021024800F008F810BD00000048004042
:104EA000900900207252002001F40072B2F5007FD8
:104EB00000D100BFCA430280704721B1828942F409
:104EC0000052828104E082894DF6FF731A4082818C
:104ED000704702460020B1F5007F00D100BF138863
:104EE0000B400BB1012000E00020704770B5024676
:104EF000002400230025002040F66A16B14200D1AC
:104F000000BFC1F3421501F01F03012606FA03F3A7
:104F1000012D02D19689334006E0022D02D1168A76
:104F2000334001E0968A33400C12012606FA04F45D
:104F30001688344013B10CB1012000E0002070BD90
:104F4000F0B50346002400260025002040F66A172D
:104F5000B94200D100BF1846C1F3421401F01F0648
:104F6000012707FA06F5012C01D10C3004E0022CD0
:104F700001D1103000E014301AB107682F430760E8
:104F800002E00768AF430760F0BD00002DE9F0477D
:104F900086B005460E460024A24600BFA146002763
:104FA000B08900B100BF2F462C8A4CF6FF70044038
:104FB000F08804432C82AC894EF6F3100440B0888C
:104FC00031890843718908430443AC81AC8A4FF6A8
:104FD000FF400440B0890443AC8201A8FFF7FAF90E
:104FE0001F48874202D1DDF810A001E0DDF80CA0D7
:104FF000A88900F4004040B10AEBCA0000EB0A1097
:1050000031684900B0FBF1F807E00AEBCA0000EB99
:105010000A1031688900B0FBF1F86420B8FBF0F0A9
:1050200004012009642101FB1089A88900F40040D3
:1050300040B1322000EBC900B0FBF1F000F00700F6
:10504000044308E0322000EB09106421B0FBF1F0CA
:1050500000F00F0004432C8106B0BDE8F08700008B
:105060000038014001468888C0F308007047C1F34A
:10507000080282807047000070B5324800687828C6
:1050800003DD30480068962809DB2F49C868FBF724
:105090008BFC04462D4A2E4BFBF7B2FC06D22D4862
:1050A0000068C0432C49C1F88C0102E00020294966
:1050B00008602A494888FBF71CFC044622484169DD
:1050C0002046FBF7D1FC02D32548807A20B101208D
:1050D00020490831086003E000201E4908310860BB
:1050E0001E498888FBF705FC04461748816820465E
:1050F000FBF7C4FC02D31A48C07A20B1012015493D
:10510000091D086003E000201249091D08600D48D0
:105110000068782803DD0B480068962809DB0A49F7
:105120008868FBF741FC0446084A094BFBF768FC1A
:1051300003D201200A49C87102E000200849C87161
:10514000012070BD0C000020745B0020CDCCCCCCC5
:10515000CC4C43408C8121420080214294090020A4
:10516000945B0020F0B58FB03E48807801281BD1B9
:105170003DA102A800F0EAF902AA01210020FEF7F1
:1051800083F83C48C0783B498978CDE9001039481C
:105190004378027838A102A800F0D8F902AA0321C6
:1051A0000020FEF771F85AE039480068142812DD33
:1051B0003748006896280EDA3648007858B13448E7
:1051C00035A1026802A800F0C1F902AA0021084630
:1051D000FEF75AF809E000222FA102A800F0B6F964
:1051E00002AA00210846FEF74FF81E494869FBF75E
:1051F000DBFB04460D461B498868FBF7D5FB0646DA
:1052000032460B4628A102A8CDE9004500F09EF9E0
:1052100002AA02210020FEF737F81249C868FBF7FE
:10522000C3FB044622460B4624A102A800F08EF9D7
:1052300002AA04210020FEF727F80E48C0780D4985
:105240008978CDE900100B48437802780AA102A8BA
:1052500000F07CF902AA06210020FEF715F80120D3
:105260000FB0F0BD745B002052656769737465729E
:1052700020200000500900204944203A20253032E7
:1052800058253032582530325825303258202D00DC
:105290000C0000200800002048656172743A202547
:1052A0003033642020202000543A20252E316620FF
:1052B00020483A20252E316620000000CCE5CEC2E1
:1052C0003A2025302E32662020A1E6200000000082
:1052D00000BFFEE710B586B00446012144F2040089
:1052E000FFF768F84FF40070ADF8140003208DF854
:1052F000160018208DF8170005A91C48FCF78DFA38
:105300004FF48060ADF8140004208DF8170005A953
:105310001648FCF782FA25208DF8000003208DF84E
:1053200001008DF8020001208DF803006846FDF7AA
:1053300017FE01940020ADF80800ADF80A00ADF8A2
:105340000C00ADF810000C20ADF80E0001A90848C3
:10535000FFF71CFE012240F225510548FFF7F0FD42
:1053600001210348FFF7A9FD06B010BD0008014068
:105370000038014010B586B0044601210820FFF72F
:1053800019F801218804FFF705F818208DF8170097
:105390004FF48060ADF8140003208DF8160005A9C5
:1053A0001D48FCF73AFA04208DF817004002ADF8CA
:1053B000140003208DF8160005A91748FCF72DFAF4
:1053C00001940020ADF810000C20ADF80E00002074
:1053D000ADF80C00ADF80A00ADF8080001A90F48BF
:1053E000FFF7D4FD01210D48FFF767FD012240F2D0
:1053F00025510A48FFF7A4FD27208DF80000012061
:105400008DF803008DF801008DF802006846FDF765
:10541000A7FD06B010BD0000000C01400048004090
:1054200070B504460D4600260DE014F8011B074830
:10543000FFF71DFE00BF40210448FFF74AFD00288A
:10544000F9D0701C86B2AE42EFDB70BD0048004060
:1054500010B50222064907480068FFF73BFB02220D
:105460000349891E04480068FFF734FB10BD0000A3
:105470009809002030090020340900207FB5054636
:105480000C46E0B28DF80000200A8DF80100200CD7
:105490008DF80200200E8DF80300E043C0B28DF8B5
:1054A0000400E043000A8DF80500E043000C8DF88D
:1054B0000600E043000E8DF80700E0B28DF808000A
:1054C000200A8DF80900200C8DF80A00200E8DF8B6
:1054D0000B008DF80C50E843C0B28DF80D008DF82C
:1054E0000E50E843C0B28DF80F0069462846FEF71B
:1054F000A0FE0646304604B070BD000070B50446FC
:105500000D467E2000EA440608210748FCF761FAB0
:105510003046FFF773F92846FFF770F90821024873
:10552000FCF759FA70BD0000000801400FB4054BAC
:1055300010B503A9044A029800F04CF910BC5DF8BC
:1055400014FB0000E16100085C0900200FB4084B67
:1055500010B504A902AA039800F03CF9044602A978
:10556000002000F0BAFC204610BC5DF814FB0000DF
:10557000DB5E000830B528B1144C031F0020216801
:105580000A4605E0084630BD9A4203D810465268E4
:10559000002AF9D1002800D041680BD00468A3EBA1
:1055A0000005A54204D11B681C440346046002E0C8
:1055B000436000E023603AB11C68D51AA54203D1CC
:1055C00015682C441C6052685A6030BDBC0900202C
:1055D0002DE9F04782460F4C10480D4E0E4F001B30
:1055E0004FF0000820F007054FF001090022114696
:1055F000504600F045FF002802D1306810B100206D
:10560000BDE8F0873C60C4E90058C6F80090EDE7BB
:10561000C0090020A45B0020BC090020A067002076
:1056200002E008C8121F08C1002AFAD1704770476B
:10563000002001E001C1121F002AFBD170470000C9
:105640002DE9FF5F82B00021DDE90430020DDDF8B5
:1056500040B0034318D044F61050A2F2FF32424348
:105660001514119801281FD0A5EB0B00401C5FEA10
:10567000000A4FF000064E4FDFF83891B046504612
:1056800015D5CAF1000413E0119801244AA301289A
:1056900001D16FEA0B010298119AC0E90031C0E90B
:1056A000024206B0BDE8F09FCBF10000DFE7044600
:1056B0000021404A491842EB0450CDE9001012E0A5
:1056C000E00707D032463B4640464946FBF79FF885
:1056D0008046894632463B4610461946FBF797F806
:1056E00006460F466410002CEAD1DDE90401DDE92D
:1056F0000023BAF1000F06DAFBF789F842464B4661
:10570000FBF785F805E0FBF73DFB42464B46FBF710
:1057100039FB04460E460022284BFBF771F903D8EB
:105720004FF0FF30014607E00022254B204631466E
:10573000FAF7C6FFFBF7A1FB102409E0002C0ADBF7
:105740000A220023FBF7BAF9039B30321A55641E74
:1057500050EA0102F2D1641C039AC4F1110314440B
:10576000119A012A03D0012208430DD10AE008430F
:1057700004D000204FF0110B119072E7A3EB0B0542
:105780006D1E0DE05B4504DD4FF0000205F10105E3
:1057900004E003DA4FF00002A5F10105002AECD085
:1057A00002981199C0E90231C0E9004579E700008B
:1057B000000014400000F03F300000000000F04303
:1057C0000000E03F30380A2801D201207047002055
:1057D000704700002DE9FF4F95B09A46884606466F
:1057E0000025EEE1252877D100242746F94A01213A
:1057F000039400E0044316F8013F203B01FA03F054
:105800001042F7D130782A2811D06FF02F0330786A
:10581000A0F13002092A16D8039A44F0020402EBE0
:10582000820203EB42021044761C0390EFE758F823
:10583000042B0392002A03DA504244F400540390EC
:1058400044F00204761C30782E2816D116F8010F89
:1058500044F004042A280DD06FF02F023078A0F114
:105860003003092B09D807EB870302EB4303C71862
:10587000761CF3E758F8047B761C30786C280FD040
:1058800006DC4C2817D068280DD06A2814D104E013
:10589000742810D07A280FD10DE044F400140AE0E7
:1058A00044F4801401E044F440147278824202D13E
:1058B00004F58014761C761C307866280BD013DC37
:1058C000582877D009DC002875D04528F6D046281E
:1058D000F4D047281AD193E118E0632835D0642822
:1058E00079D0652812D18BE1702873D008DC672845
:1058F000F1D069286FD06E280DD06F2806D1ACE0AA
:1059000073282CD0752874D0782853D05246179914
:1059100090476D1C54E1C4F30250022809D00328BB
:105920000DD0D8F8001004280DD00D6008F104083F
:1059300046E1D8F80010EA17C1E90052F6E7D8F8B6
:1059400000100D80F2E70D70F0E718F8041B8DF8D9
:10595000001000208DF80100EB46012003E058F80C
:1059600004BB4FF0FF3061074FF0000102D40DE09F
:1059700009F101018946B9420FDA8145F8DB1BF8CC
:1059800009100029F4D108E009F10101894681429A
:10599000FADB1BF809100029F6D103985346A0EB57
:1059A000090721463846179A00F080FA284400EB90
:1059B000090507E044E008E10DE01BF8010B524641
:1059C00017999047B9F10109F7D253462146384655
:1059D000179AF2E039E00A21C4F302524FF0000BAB
:1059E0000091022A06D058F8040BC117032A09D0E7
:1059F0000AE023E008F1070020F00702F2E80201C4
:105A0000904605E000B2C117042A01D140B2C11787
:105A1000002906DA0A460021404261EB02012D22EC
:105A200002E0220504D52B228DF80420012203E098
:105A3000E20701D02022F7E7914657E00A2100E073
:105A400010214FF0000B00910BE010214FF0000BE4
:105A500044F004040827009103E008204FF0000BF5
:105A60000090C4F30252022A05D058F8040B00211A
:105A7000032A08D008E008F1070020F00702F2E846
:105A80000201904603E080B2042A00D1C0B24FF078
:105A9000000922072AD53278702A07D0DDF800C025
:105AA0008CF0100C5CEA0B0C05D00EE040228DF857
:105AB0000420012208E050EA010306D030238DF8CB
:105AC00004308DF8052002229146009B83F00803E4
:105AD00053EA0B030AD150EA010201D1620705D54E
